{"abi":[{"type":"constructor","inputs":[{"name":"n","type":"string","internalType":"string"},{"name":"s","type":"string","internalType":"string"}],"stateMutability":"nonpayable"},{"type":"function","name":"balanceOf","inputs":[{"name":"","type":"address","internalType":"address"}],"outputs":[{"name":"","type":"uint256","internalType":"uint256"}],"stateMutability":"view"},{"type":"function","name":"mint","inputs":[{"name":"to","type":"address","internalType":"address"},{"name":"amount","type":"uint256","internalType":"uint256"}],"outputs":[],"stateMutability":"nonpayable"},{"type":"function","name":"minter","inputs":[],"outputs":[{"name":"","type":"address","internalType":"address"}],"stateMutability":"view"},{"type":"function","name":"name","inputs":[],"outputs":[{"name":"","type":"string","internalType":"string"}],"stateMutability":"view"},{"type":"function","name":"setMinter","inputs":[{"name":"m","type":"address","internalType":"address"}],"outputs":[],"stateMutability":"nonpayable"},{"type":"function","name":"symbol","inputs":[],"outputs":[{"name":"","type":"string","internalType":"string"}],"stateMutability":"view"}],"bytecode":{"object":"0x608060405234801561001057600080fd5b5060405161065738038061065783398101604081905261002f91610109565b600061003b83826101fb565b50600161004882826101fb565b5050506102b9565b634e487b7160e01b600052604160045260246000fd5b600082601f83011261007757600080fd5b81516001600160401b0381111561009057610090610050565b604051601f8201601f19908116603f011681016001600160401b03811182821017156100be576100be610050565b6040528181528382016020018510156100d657600080fd5b60005b828110156100f5576020818601810151838301820152016100d9565b506000918101602001919091529392505050565b6000806040838503121561011c57600080fd5b82516001600160401b0381111561013257600080fd5b61013e85828601610066565b602085015190935090506001600160401b0381111561015c57600080fd5b61016885828601610066565b9150509250929050565b600181811c9082168061018657607f821691505b6020821081036101a657634e487b7160e01b600052602260045260246000fd5b50919050565b601f8211156101f657806000526020600020601f840160051c810160208510156101d35750805b601f840160051c820191505b818110156101f357600081556001016101df565b50505b505050565b81516001600160401b0381111561021457610214610050565b610228816102228454610172565b846101ac565b6020601f82116001811461025c57600083156102445750848201515b600019600385901b1c1916600184901b1784556101f3565b600084815260208120601f198516915b8281101561028c578785015182556020948501946001909201910161026c565b50848210156102aa5786840151600019600387901b60f8161c191681555b50505050600190811b01905550565b61038f806102c86000396000f3fe608060405234801561001057600080fd5b50600436106100625760003560e01c806306fdde0314610067578063075461721461008557806340c10f19146100b057806370a08231146100c557806395d89b41146100f3578063fca3b5aa146100fb575b600080fd5b61006f61012b565b60405161007c9190610242565b60405180910390f35b600254610098906001600160a01b031681565b6040516001600160a01b03909116815260200161007c565b6100c36100be3660046102ac565b6101b9565b005b6100e56100d33660046102d6565b60036020526000908152604090205481565b60405190815260200161007c565b61006f610235565b6100c36101093660046102d6565b600280546001600160a01b0319166001600160a01b0392909216919091179055565b60008054610138906102f8565b80601f0160208091040260200160405190810160405280929190818152602001828054610164906102f8565b80156101b15780601f10610186576101008083540402835291602001916101b1565b820191906000526020600020905b81548152906001019060200180831161019457829003601f168201915b505050505081565b6002546001600160a01b031633146102045760405162461bcd60e51b815260206004820152600a6024820152693737ba1036b4b73a32b960b11b604482015260640160405180910390fd5b6001600160a01b0382166000908152600360205260408120805483929061022c908490610332565b90915550505050565b60018054610138906102f8565b602081526000825180602084015260005b818110156102705760208186018101516040868401015201610253565b506000604082850101526040601f19601f83011684010191505092915050565b80356001600160a01b03811681146102a757600080fd5b919050565b600080604083850312156102bf57600080fd5b6102c883610290565b946020939093013593505050565b6000602082840312156102e857600080fd5b6102f182610290565b9392505050565b600181811c9082168061030c57607f821691505b60208210810361032c57634e487b7160e01b600052602260045260246000fd5b50919050565b8082018082111561035357634e487b7160e01b600052601160045260246000fd5b9291505056fea26469706673582212200260c691ecf9d1b44d8f720c2be5ab3afac7a79a05d945c567754e99985d837e64736f6c634300081e0033","linkReferences":{}},"methodIdentifiers":{"balanceOf(address)":"70a08231","mint(address,uint256)":"40c10f19","minter()":"07546172","name()":"06fdde03","setMinter(address)":"fca3b5aa","symbol()":"95d89b41"},"id":3}