{"abi":[{"type":"function","name":"balanceOf","inputs":[{"name":"","type":"address","internalType":"address"}],"outputs":[{"name":"","type":"uint256","internalType":"uint256"}],"stateMutability":"view"},{"type":"function","name":"mint","inputs":[{"name":"to","type":"address","internalType":"address"},{"name":"amount","type":"uint256","internalType":"uint256"}],"outputs":[],"stateMutability":"nonpayable"},{"type":"function","name":"minter","inputs":[],"outputs":[{"name":"","type":"address","internalType":"address"}],"stateMutability":"view"},{"type":"function","name":"setCrowdsaleTarget","inputs":[{"name":"t","type":"address","internalType":"address"}],"outputs":[],"stateMutability":"nonpayable"},{"type":"function","name":"setMinter","inputs":[{"name":"m","type":"address","internalType":"address"}],"outputs":[],"stateMutability":"nonpayable"},{"type":"function","name":"target","inputs":[],"outputs":[{"name":"","type":"address","internalType":"address"}],"stateMutability":"view"}],"bytecode":{"object":"0x6080604052348015600f57600080fd5b5061030a8061001f6000396000f3fe608060405234801561001057600080fd5b50600436106100625760003560e01c8063075461721461006757806340c10f191461009757806370a08231146100ac578063d4b83992146100da578063f023ab24146100ed578063fca3b5aa1461011d575b600080fd5b60005461007a906001600160a01b031681565b6040516001600160a01b0390911681526020015b60405180910390f35b6100aa6100a5366004610261565b61014d565b005b6100cc6100ba36600461028b565b60026020526000908152604090205481565b60405190815260200161008e565b60015461007a906001600160a01b031681565b6100aa6100fb36600461028b565b600180546001600160a01b0319166001600160a01b0392909216919091179055565b6100aa61012b36600461028b565b600080546001600160a01b0319166001600160a01b0392909216919091179055565b6000546001600160a01b031633146101985760405162461bcd60e51b815260206004820152600a6024820152693737ba1036b4b73a32b960b11b604482015260640160405180910390fd5b6001546001600160a01b03161561021457600160009054906101000a90046001600160a01b03166001600160a01b031663d0febe4c60016040518263ffffffff1660e01b81526004016000604051808303818588803b1580156101fa57600080fd5b505af115801561020e573d6000803e3d6000fd5b50505050505b6001600160a01b0382166000908152600260205260408120805483929061023c9084906102ad565b90915550505050565b80356001600160a01b038116811461025c57600080fd5b919050565b6000806040838503121561027457600080fd5b61027d83610245565b946020939093013593505050565b60006020828403121561029d57600080fd5b6102a682610245565b9392505050565b808201808211156102ce57634e487b7160e01b600052601160045260246000fd5b9291505056fea264697066735822122009e2d86cdb57e4d8869ef2110a5fe68260c75f4b88a6fda26a67d2d4b137781664736f6c634300081e0033","linkReferences":{}},"methodIdentifiers":{"balanceOf(address)":"70a08231","mint(address,uint256)":"40c10f19","minter()":"07546172","setCrowdsaleTarget(address)":"f023ab24","setMinter(address)":"fca3b5aa","target()":"d4b83992"},"id":1}