{
  "_format": "hh-sol-artifact-1",
  "contractName": "Crowdsale",
  "sourceName": "contracts/Crowdsale.sol",
  "abi": [
    {
      "inputs": [
        {
          "internalType": "address",
          "name": "tokenAddress",
          "type": "address"
        },
        {
          "internalType": "uint256",
          "name": "_rate",
          "type": "uint256"
        },
        {
          "internalType": "uint256",
          "name": "_cap",
          "type": "uint256"
        },
        {
          "internalType": "address",
          "name": "nftAddress",
          "type": "address"
        }
      ],
      "stateMutability": "nonpayable",
      "type": "constructor"
    },
    {
      "inputs": [],
      "name": "ReentrancyGuardReentrantCall",
      "type": "error"
    },
    {
      "anonymous": false,
      "inputs": [
        {
          "indexed": true,
          "internalType": "address",
          "name": "to",
          "type": "address"
        },
        {
          "indexed": true,
          "internalType": "uint256",
          "name": "tokenId",
          "type": "uint256"
        },
        {
          "indexed": false,
          "internalType": "uint256",
          "name": "paidWei",
          "type": "uint256"
        },
        {
          "indexed": false,
          "internalType": "uint256",
          "name": "tokensOut",
          "type": "uint256"
        }
      ],
      "name": "ReceiptMinted",
      "type": "event"
    },
    {
      "anonymous": false,
      "inputs": [
        {
          "indexed": true,
          "internalType": "address",
          "name": "buyer",
          "type": "address"
        },
        {
          "indexed": false,
          "internalType": "uint256",
          "name": "value",
          "type": "uint256"
        },
        {
          "indexed": false,
          "internalType": "uint256",
          "name": "amount",
          "type": "uint256"
        }
      ],
      "name": "TokensPurchased",
      "type": "event"
    },
    {
      "anonymous": false,
      "inputs": [
        {
          "indexed": true,
          "internalType": "address",
          "name": "to",
          "type": "address"
        },
        {
          "indexed": false,
          "internalType": "uint256",
          "name": "value",
          "type": "uint256"
        }
      ],
      "name": "Withdrawn",
      "type": "event"
    },
    {
      "inputs": [],
      "name": "buyTokens",
      "outputs": [],
      "stateMutability": "payable",
      "type": "function"
    },
    {
      "inputs": [],
      "name": "cap",
      "outputs": [
        {
          "internalType": "uint256",
          "name": "",
          "type": "uint256"
        }
      ],
      "stateMutability": "view",
      "type": "function"
    },
    {
      "inputs": [],
      "name": "owner",
      "outputs": [
        {
          "internalType": "address",
          "name": "",
          "type": "address"
        }
      ],
      "stateMutability": "view",
      "type": "function"
    },
    {
      "inputs": [],
      "name": "rate",
      "outputs": [
        {
          "internalType": "uint256",
          "name": "",
          "type": "uint256"
        }
      ],
      "stateMutability": "view",
      "type": "function"
    },
    {
      "inputs": [],
      "name": "receiptNFT",
      "outputs": [
        {
          "internalType": "contract IReceiptNFT",
          "name": "",
          "type": "address"
        }
      ],
      "stateMutability": "view",
      "type": "function"
    },
    {
      "inputs": [],
      "name": "token",
      "outputs": [
        {
          "internalType": "contract IToken",
          "name": "",
          "type": "address"
        }
      ],
      "stateMutability": "view",
      "type": "function"
    },
    {
      "inputs": [],
      "name": "weiRaised",
      "outputs": [
        {
          "internalType": "uint256",
          "name": "",
          "type": "uint256"
        }
      ],
      "stateMutability": "view",
      "type": "function"
    },
    {
      "inputs": [],
      "name": "withdraw",
      "outputs": [],
      "stateMutability": "nonpayable",
      "type": "function"
    },
    {
      "stateMutability": "payable",
      "type": "receive"
    }
  ],
  "bytecode": "0x61012060405234801561001157600080fd5b5060405161095338038061095383398101604081905261003091610173565b60016000556001600160a01b03841661007f5760405162461bcd60e51b815260206004820152600c60248201526b0746f6b656e20616464723d360a41b60448201526064015b60405180910390fd5b826000036100b85760405162461bcd60e51b81526020600482015260066024820152650726174653d360d41b6044820152606401610076565b816000036100f05760405162461bcd60e51b815260206004820152600560248201526406361703d360dc1b6044820152606401610076565b6001600160a01b0381166101335760405162461bcd60e51b815260206004820152600a60248201526906e667420616464723d360b41b6044820152606401610076565b6001600160a01b0393841660805290921660a0523360c05260e052610100526101b9565b80516001600160a01b038116811461016e57600080fd5b919050565b6000806000806080858703121561018957600080fd5b61019285610157565b935060208501519250604085015191506101ae60608601610157565b905092959194509250565b60805160a05160c05160e0516101005161072761022c6000396000818160ec01526104e501526000818160a5015261055c01526000818161014b015281816102fa0152818161036a015261040d01526000818161019f015261022c0152600081816101d301526105ca01526107276000f3fe60806040526004361061007f5760003560e01c80638da5cb5b1161004e5780638da5cb5b14610139578063d0febe4c14610185578063d7a7b8991461018d578063fc0c546a146101c157600080fd5b80632c4e722e14610093578063355274ea146100da5780633ccfd60b1461010e5780634042b66f1461012357600080fd5b3661008e5761008c6101f5565b005b600080fd5b34801561009f57600080fd5b506100c77f000000000000000000000000000000000000000000000000000000000000000081565b6040519081526020015b60405180910390f35b3480156100e657600080fd5b506100c77f000000000000000000000000000000000000000000000000000000000000000081565b34801561011a57600080fd5b5061008c6102e7565b34801561012f57600080fd5b506100c760015481565b34801561014557600080fd5b5061016d7f000000000000000000000000000000000000000000000000000000000000000081565b6040516001600160a01b0390911681526020016100d1565b61008c6101f5565b34801561019957600080fd5b5061016d7f000000000000000000000000000000000000000000000000000000000000000081565b3480156101cd57600080fd5b5061016d7f000000000000000000000000000000000000000000000000000000000000000081565b6101fd61047a565b600061020933346104a4565b60405163755edd1760e01b81523360048201529091506000906001600160a01b037f0000000000000000000000000000000000000000000000000000000000000000169063755edd17906024016020604051808303816000875af1158015610275573d6000803e3d6000fd5b505050506040513d601f19601f820116820180604052508101906102999190610670565b6040805134815260208101859052919250829133917f0927dd0ddb3e984a129a5a3bd8203df4170589445935f53074b0eea2d95243cb910160405180910390a350506102e56001600055565b565b6102ef61047a565b336001600160a01b037f000000000000000000000000000000000000000000000000000000000000000016146103585760405162461bcd60e51b81526020600482015260096024820152683737ba1037bbb732b960b91b60448201526064015b60405180910390fd5b60405147906000906001600160a01b037f0000000000000000000000000000000000000000000000000000000000000000169083908381818185875af1925050503d80600081146103c5576040519150601f19603f3d011682016040523d82523d6000602084013e6103ca565b606091505b505090508061040b5760405162461bcd60e51b815260206004820152600d60248201526c1dda5d1a191c985dc819985a5b609a1b604482015260640161034f565b7f00000000000000000000000000000000000000000000000000000000000000006001600160a01b03167f7084f5476618d8e60b11ef0d7d3f06914655adb8793e28ff7f018d4c76d505d58360405161046691815260200190565b60405180910390a250506102e56001600055565b60026000540361049d57604051633ee5aeb560e01b815260040160405180910390fd5b6002600055565b60008082116104e35760405162461bcd60e51b815260206004820152600b60248201526a1b9bc8115512081cd95b9d60aa1b604482015260640161034f565b7f000000000000000000000000000000000000000000000000000000000000000082600154610512919061069f565b111561054e5760405162461bcd60e51b815260206004820152600b60248201526a18d85c081c995858da195960aa1b604482015260640161034f565b670de0b6b3a76400006105817f0000000000000000000000000000000000000000000000000000000000000000846106b8565b61058b91906106cf565b9050816001600082825461059f919061069f565b90915550506040516340c10f1960e01b81526001600160a01b038481166004830152602482018390527f000000000000000000000000000000000000000000000000000000000000000016906340c10f1990604401600060405180830381600087803b15801561060e57600080fd5b505af1158015610622573d6000803e3d6000fd5b505060408051858152602081018590526001600160a01b03871693507f8fafebcaf9d154343dad25669bfa277f4fbacd7ac6b0c4fed522580e040a0f3392500160405180910390a292915050565b60006020828403121561068257600080fd5b5051919050565b634e487b7160e01b600052601160045260246000fd5b808201808211156106b2576106b2610689565b92915050565b80820281158282048414176106b2576106b2610689565b6000826106ec57634e487b7160e01b600052601260045260246000fd5b50049056fea26469706673582212201b798c9e7ae4552c5f070f966d1e78c7e353518c2d5d5b711df98c2e3453582164736f6c63430008140033",
  "linkReferences": {},
  "deployedLinkReferences": {}
}