{
  "_format": "hh-sol-artifact-1",
  "contractName": "ProofNFT",
  "sourceName": "contracts/ProofNFT.sol",
  "abi": [
    {
      "inputs": [
        {
          "internalType": "string",
          "name": "name_",
          "type": "string"
        },
        {
          "internalType": "string",
          "name": "symbol_",
          "type": "string"
        },
        {
          "internalType": "string",
          "name": "baseURI_",
          "type": "string"
        }
      ],
      "stateMutability": "nonpayable",
      "type": "constructor"
    },
    {
      "inputs": [],
      "name": "AccessControlBadConfirmation",
      "type": "error"
    },
    {
      "inputs": [
        {
          "internalType": "address",
          "name": "account",
          "type": "address"
        },
        {
          "internalType": "bytes32",
          "name": "neededRole",
          "type": "bytes32"
        }
      ],
      "name": "AccessControlUnauthorizedAccount",
      "type": "error"
    },
    {
      "inputs": [
        {
          "internalType": "address",
          "name": "sender",
          "type": "address"
        },
        {
          "internalType": "uint256",
          "name": "tokenId",
          "type": "uint256"
        },
        {
          "internalType": "address",
          "name": "owner",
          "type": "address"
        }
      ],
      "name": "ERC721IncorrectOwner",
      "type": "error"
    },
    {
      "inputs": [
        {
          "internalType": "address",
          "name": "operator",
          "type": "address"
        },
        {
          "internalType": "uint256",
          "name": "tokenId",
          "type": "uint256"
        }
      ],
      "name": "ERC721InsufficientApproval",
      "type": "error"
    },
    {
      "inputs": [
        {
          "internalType": "address",
          "name": "approver",
          "type": "address"
        }
      ],
      "name": "ERC721InvalidApprover",
      "type": "error"
    },
    {
      "inputs": [
        {
          "internalType": "address",
          "name": "operator",
          "type": "address"
        }
      ],
      "name": "ERC721InvalidOperator",
      "type": "error"
    },
    {
      "inputs": [
        {
          "internalType": "address",
          "name": "owner",
          "type": "address"
        }
      ],
      "name": "ERC721InvalidOwner",
      "type": "error"
    },
    {
      "inputs": [
        {
          "internalType": "address",
          "name": "receiver",
          "type": "address"
        }
      ],
      "name": "ERC721InvalidReceiver",
      "type": "error"
    },
    {
      "inputs": [
        {
          "internalType": "address",
          "name": "sender",
          "type": "address"
        }
      ],
      "name": "ERC721InvalidSender",
      "type": "error"
    },
    {
      "inputs": [
        {
          "internalType": "uint256",
          "name": "tokenId",
          "type": "uint256"
        }
      ],
      "name": "ERC721NonexistentToken",
      "type": "error"
    },
    {
      "anonymous": false,
      "inputs": [
        {
          "indexed": true,
          "internalType": "address",
          "name": "owner",
          "type": "address"
        },
        {
          "indexed": true,
          "internalType": "address",
          "name": "approved",
          "type": "address"
        },
        {
          "indexed": true,
          "internalType": "uint256",
          "name": "tokenId",
          "type": "uint256"
        }
      ],
      "name": "Approval",
      "type": "event"
    },
    {
      "anonymous": false,
      "inputs": [
        {
          "indexed": true,
          "internalType": "address",
          "name": "owner",
          "type": "address"
        },
        {
          "indexed": true,
          "internalType": "address",
          "name": "operator",
          "type": "address"
        },
        {
          "indexed": false,
          "internalType": "bool",
          "name": "approved",
          "type": "bool"
        }
      ],
      "name": "ApprovalForAll",
      "type": "event"
    },
    {
      "anonymous": false,
      "inputs": [
        {
          "indexed": false,
          "internalType": "string",
          "name": "newBase",
          "type": "string"
        }
      ],
      "name": "BaseURISet",
      "type": "event"
    },
    {
      "anonymous": false,
      "inputs": [
        {
          "indexed": false,
          "internalType": "uint256",
          "name": "_fromTokenId",
          "type": "uint256"
        },
        {
          "indexed": false,
          "internalType": "uint256",
          "name": "_toTokenId",
          "type": "uint256"
        }
      ],
      "name": "BatchMetadataUpdate",
      "type": "event"
    },
    {
      "anonymous": false,
      "inputs": [
        {
          "indexed": false,
          "internalType": "uint256",
          "name": "_tokenId",
          "type": "uint256"
        }
      ],
      "name": "MetadataUpdate",
      "type": "event"
    },
    {
      "anonymous": false,
      "inputs": [
        {
          "indexed": true,
          "internalType": "address",
          "name": "minter",
          "type": "address"
        }
      ],
      "name": "MinterGranted",
      "type": "event"
    },
    {
      "anonymous": false,
      "inputs": [
        {
          "indexed": true,
          "internalType": "address",
          "name": "minter",
          "type": "address"
        }
      ],
      "name": "MinterRevoked",
      "type": "event"
    },
    {
      "anonymous": false,
      "inputs": [
        {
          "indexed": true,
          "internalType": "address",
          "name": "to",
          "type": "address"
        },
        {
          "indexed": true,
          "internalType": "uint256",
          "name": "tokenId",
          "type": "uint256"
        }
      ],
      "name": "ReceiptMinted",
      "type": "event"
    },
    {
      "anonymous": false,
      "inputs": [
        {
          "indexed": true,
          "internalType": "bytes32",
          "name": "role",
          "type": "bytes32"
        },
        {
          "indexed": true,
          "internalType": "bytes32",
          "name": "previousAdminRole",
          "type": "bytes32"
        },
        {
          "indexed": true,
          "internalType": "bytes32",
          "name": "newAdminRole",
          "type": "bytes32"
        }
      ],
      "name": "RoleAdminChanged",
      "type": "event"
    },
    {
      "anonymous": false,
      "inputs": [
        {
          "indexed": true,
          "internalType": "bytes32",
          "name": "role",
          "type": "bytes32"
        },
        {
          "indexed": true,
          "internalType": "address",
          "name": "account",
          "type": "address"
        },
        {
          "indexed": true,
          "internalType": "address",
          "name": "sender",
          "type": "address"
        }
      ],
      "name": "RoleGranted",
      "type": "event"
    },
    {
      "anonymous": false,
      "inputs": [
        {
          "indexed": true,
          "internalType": "bytes32",
          "name": "role",
          "type": "bytes32"
        },
        {
          "indexed": true,
          "internalType": "address",
          "name": "account",
          "type": "address"
        },
        {
          "indexed": true,
          "internalType": "address",
          "name": "sender",
          "type": "address"
        }
      ],
      "name": "RoleRevoked",
      "type": "event"
    },
    {
      "anonymous": false,
      "inputs": [
        {
          "indexed": true,
          "internalType": "address",
          "name": "from",
          "type": "address"
        },
        {
          "indexed": true,
          "internalType": "address",
          "name": "to",
          "type": "address"
        },
        {
          "indexed": true,
          "internalType": "uint256",
          "name": "tokenId",
          "type": "uint256"
        }
      ],
      "name": "Transfer",
      "type": "event"
    },
    {
      "inputs": [],
      "name": "DEFAULT_ADMIN_ROLE",
      "outputs": [
        {
          "internalType": "bytes32",
          "name": "",
          "type": "bytes32"
        }
      ],
      "stateMutability": "view",
      "type": "function"
    },
    {
      "inputs": [],
      "name": "MINTER_ROLE",
      "outputs": [
        {
          "internalType": "bytes32",
          "name": "",
          "type": "bytes32"
        }
      ],
      "stateMutability": "view",
      "type": "function"
    },
    {
      "inputs": [
        {
          "internalType": "address",
          "name": "to",
          "type": "address"
        },
        {
          "internalType": "uint256",
          "name": "tokenId",
          "type": "uint256"
        }
      ],
      "name": "approve",
      "outputs": [],
      "stateMutability": "nonpayable",
      "type": "function"
    },
    {
      "inputs": [
        {
          "internalType": "address",
          "name": "owner",
          "type": "address"
        }
      ],
      "name": "balanceOf",
      "outputs": [
        {
          "internalType": "uint256",
          "name": "",
          "type": "uint256"
        }
      ],
      "stateMutability": "view",
      "type": "function"
    },
    {
      "inputs": [
        {
          "internalType": "uint256",
          "name": "tokenId",
          "type": "uint256"
        }
      ],
      "name": "getApproved",
      "outputs": [
        {
          "internalType": "address",
          "name": "",
          "type": "address"
        }
      ],
      "stateMutability": "view",
      "type": "function"
    },
    {
      "inputs": [
        {
          "internalType": "bytes32",
          "name": "role",
          "type": "bytes32"
        }
      ],
      "name": "getRoleAdmin",
      "outputs": [
        {
          "internalType": "bytes32",
          "name": "",
          "type": "bytes32"
        }
      ],
      "stateMutability": "view",
      "type": "function"
    },
    {
      "inputs": [
        {
          "internalType": "address",
          "name": "minter",
          "type": "address"
        }
      ],
      "name": "grantMinter",
      "outputs": [],
      "stateMutability": "nonpayable",
      "type": "function"
    },
    {
      "inputs": [
        {
          "internalType": "bytes32",
          "name": "role",
          "type": "bytes32"
        },
        {
          "internalType": "address",
          "name": "account",
          "type": "address"
        }
      ],
      "name": "grantRole",
      "outputs": [],
      "stateMutability": "nonpayable",
      "type": "function"
    },
    {
      "inputs": [
        {
          "internalType": "bytes32",
          "name": "role",
          "type": "bytes32"
        },
        {
          "internalType": "address",
          "name": "account",
          "type": "address"
        }
      ],
      "name": "hasRole",
      "outputs": [
        {
          "internalType": "bool",
          "name": "",
          "type": "bool"
        }
      ],
      "stateMutability": "view",
      "type": "function"
    },
    {
      "inputs": [
        {
          "internalType": "address",
          "name": "owner",
          "type": "address"
        },
        {
          "internalType": "address",
          "name": "operator",
          "type": "address"
        }
      ],
      "name": "isApprovedForAll",
      "outputs": [
        {
          "internalType": "bool",
          "name": "",
          "type": "bool"
        }
      ],
      "stateMutability": "view",
      "type": "function"
    },
    {
      "inputs": [
        {
          "internalType": "address",
          "name": "to",
          "type": "address"
        },
        {
          "internalType": "string",
          "name": "tokenURI_",
          "type": "string"
        }
      ],
      "name": "mintReceipt",
      "outputs": [
        {
          "internalType": "uint256",
          "name": "",
          "type": "uint256"
        }
      ],
      "stateMutability": "nonpayable",
      "type": "function"
    },
    {
      "inputs": [
        {
          "internalType": "address",
          "name": "to",
          "type": "address"
        }
      ],
      "name": "mintTo",
      "outputs": [
        {
          "internalType": "uint256",
          "name": "",
          "type": "uint256"
        }
      ],
      "stateMutability": "nonpayable",
      "type": "function"
    },
    {
      "inputs": [],
      "name": "name",
      "outputs": [
        {
          "internalType": "string",
          "name": "",
          "type": "string"
        }
      ],
      "stateMutability": "view",
      "type": "function"
    },
    {
      "inputs": [
        {
          "internalType": "uint256",
          "name": "tokenId",
          "type": "uint256"
        }
      ],
      "name": "ownerOf",
      "outputs": [
        {
          "internalType": "address",
          "name": "",
          "type": "address"
        }
      ],
      "stateMutability": "view",
      "type": "function"
    },
    {
      "inputs": [
        {
          "internalType": "bytes32",
          "name": "role",
          "type": "bytes32"
        },
        {
          "internalType": "address",
          "name": "callerConfirmation",
          "type": "address"
        }
      ],
      "name": "renounceRole",
      "outputs": [],
      "stateMutability": "nonpayable",
      "type": "function"
    },
    {
      "inputs": [
        {
          "internalType": "address",
          "name": "minter",
          "type": "address"
        }
      ],
      "name": "revokeMinter",
      "outputs": [],
      "stateMutability": "nonpayable",
      "type": "function"
    },
    {
      "inputs": [
        {
          "internalType": "bytes32",
          "name": "role",
          "type": "bytes32"
        },
        {
          "internalType": "address",
          "name": "account",
          "type": "address"
        }
      ],
      "name": "revokeRole",
      "outputs": [],
      "stateMutability": "nonpayable",
      "type": "function"
    },
    {
      "inputs": [
        {
          "internalType": "address",
          "name": "from",
          "type": "address"
        },
        {
          "internalType": "address",
          "name": "to",
          "type": "address"
        },
        {
          "internalType": "uint256",
          "name": "tokenId",
          "type": "uint256"
        }
      ],
      "name": "safeTransferFrom",
      "outputs": [],
      "stateMutability": "nonpayable",
      "type": "function"
    },
    {
      "inputs": [
        {
          "internalType": "address",
          "name": "from",
          "type": "address"
        },
        {
          "internalType": "address",
          "name": "to",
          "type": "address"
        },
        {
          "internalType": "uint256",
          "name": "tokenId",
          "type": "uint256"
        },
        {
          "internalType": "bytes",
          "name": "data",
          "type": "bytes"
        }
      ],
      "name": "safeTransferFrom",
      "outputs": [],
      "stateMutability": "nonpayable",
      "type": "function"
    },
    {
      "inputs": [
        {
          "internalType": "address",
          "name": "operator",
          "type": "address"
        },
        {
          "internalType": "bool",
          "name": "approved",
          "type": "bool"
        }
      ],
      "name": "setApprovalForAll",
      "outputs": [],
      "stateMutability": "nonpayable",
      "type": "function"
    },
    {
      "inputs": [
        {
          "internalType": "string",
          "name": "newBase",
          "type": "string"
        }
      ],
      "name": "setBaseURI",
      "outputs": [],
      "stateMutability": "nonpayable",
      "type": "function"
    },
    {
      "inputs": [
        {
          "internalType": "bytes4",
          "name": "interfaceId",
          "type": "bytes4"
        }
      ],
      "name": "supportsInterface",
      "outputs": [
        {
          "internalType": "bool",
          "name": "",
          "type": "bool"
        }
      ],
      "stateMutability": "view",
      "type": "function"
    },
    {
      "inputs": [],
      "name": "symbol",
      "outputs": [
        {
          "internalType": "string",
          "name": "",
          "type": "string"
        }
      ],
      "stateMutability": "view",
      "type": "function"
    },
    {
      "inputs": [
        {
          "internalType": "uint256",
          "name": "tokenId",
          "type": "uint256"
        }
      ],
      "name": "tokenURI",
      "outputs": [
        {
          "internalType": "string",
          "name": "",
          "type": "string"
        }
      ],
      "stateMutability": "view",
      "type": "function"
    },
    {
      "inputs": [],
      "name": "totalSupply",
      "outputs": [
        {
          "internalType": "uint256",
          "name": "",
          "type": "uint256"
        }
      ],
      "stateMutability": "view",
      "type": "function"
    },
    {
      "inputs": [
        {
          "internalType": "address",
          "name": "from",
          "type": "address"
        },
        {
          "internalType": "address",
          "name": "to",
          "type": "address"
        },
        {
          "internalType": "uint256",
          "name": "tokenId",
          "type": "uint256"
        }
      ],
      "name": "transferFrom",
      "outputs": [],
      "stateMutability": "nonpayable",
      "type": "function"
    }
  ],
  "bytecode": "0x608060405260016008553480156200001657600080fd5b5060405162001e4d38038062001e4d8339810160408190526200003991620001fb565b828260006200004983826200031b565b5060016200005882826200031b565b506200006a9150600090503362000083565b5060096200007982826200031b565b50505050620003e7565b60008281526007602090815260408083206001600160a01b038516845290915281205460ff166200012c5760008381526007602090815260408083206001600160a01b03861684529091529020805460ff19166001179055620000e33390565b6001600160a01b0316826001600160a01b0316847f2f8788117e7eff1d82e926ec794901d17c78024a50270940304540a733656f0d60405160405180910390a450600162000130565b5060005b92915050565b634e487b7160e01b600052604160045260246000fd5b600082601f8301126200015e57600080fd5b81516001600160401b03808211156200017b576200017b62000136565b604051601f8301601f19908116603f01168101908282118183101715620001a657620001a662000136565b81604052838152602092508683858801011115620001c357600080fd5b600091505b83821015620001e75785820183015181830184015290820190620001c8565b600093810190920192909252949350505050565b6000806000606084860312156200021157600080fd5b83516001600160401b03808211156200022957600080fd5b62000237878388016200014c565b945060208601519150808211156200024e57600080fd5b6200025c878388016200014c565b935060408601519150808211156200027357600080fd5b5062000282868287016200014c565b9150509250925092565b600181811c90821680620002a157607f821691505b602082108103620002c257634e487b7160e01b600052602260045260246000fd5b50919050565b601f8211156200031657600081815260208120601f850160051c81016020861015620002f15750805b601f850160051c820191505b818110156200031257828155600101620002fd565b5050505b505050565b81516001600160401b0381111562000337576200033762000136565b6200034f816200034884546200028c565b84620002c8565b602080601f8311600181146200038757600084156200036e5750858301515b600019600386901b1c1916600185901b17855562000312565b600085815260208120601f198616915b82811015620003b85788860151825594840194600190910190840162000397565b5085821015620003d75787850151600019600388901b60f8161c191681555b5050505050600190811b01905550565b611a5680620003f76000396000f3fe608060405234801561001057600080fd5b506004361061018e5760003560e01c806370a08231116100de578063a22cb46511610097578063cfbd488511610071578063cfbd488514610363578063d539139314610376578063d547741f1461038b578063e985e9c51461039e57600080fd5b8063a22cb4651461032a578063b88d4fde1461033d578063c87b56dd1461035057600080fd5b806370a08231146102ce578063755edd17146102e15780639013255e146102f457806391d148541461030757806395d89b411461031a578063a217fddf1461032257600080fd5b8063248a9ca31161014b57806336568abe1161012557806336568abe1461028257806342842e0e1461029557806355f804b3146102a85780636352211e146102bb57600080fd5b8063248a9ca314610239578063261707fa1461025c5780632f2ff15d1461026f57600080fd5b806301ffc9a71461019357806306fdde03146101bb578063081812fc146101d0578063095ea7b3146101fb57806318160ddd1461021057806323b872dd14610226575b600080fd5b6101a66101a136600461136d565b6103b1565b60405190151581526020015b60405180910390f35b6101c36103c2565b6040516101b291906113e1565b6101e36101de3660046113f4565b610454565b6040516001600160a01b0390911681526020016101b2565b61020e610209366004611429565b61047d565b005b61021861048c565b6040519081526020016101b2565b61020e610234366004611453565b6104a2565b6102186102473660046113f4565b60009081526007602052604090206001015490565b61020e61026a36600461148f565b610532565b61020e61027d3660046114aa565b61058e565b61020e6102903660046114aa565b6105b3565b61020e6102a3366004611453565b6105eb565b61020e6102b636600461151f565b610606565b6101e36102c93660046113f4565b61065d565b6102186102dc36600461148f565b610668565b6102186102ef36600461148f565b6106b0565b610218610302366004611561565b6106ec565b6101a66103153660046114aa565b61074f565b6101c361077a565b610218600081565b61020e6103383660046115b4565b610789565b61020e61034b366004611606565b610794565b6101c361035e3660046113f4565b6107ac565b61020e61037136600461148f565b6107b7565b610218600080516020611a0183398151915281565b61020e6103993660046114aa565b610813565b6101a66103ac3660046116e2565b610838565b60006103bc82610866565b92915050565b6060600080546103d19061170c565b80601f01602080910402602001604051908101604052809291908181526020018280546103fd9061170c565b801561044a5780601f1061041f5761010080835404028352916020019161044a565b820191906000526020600020905b81548152906001019060200180831161042d57829003601f168201915b5050505050905090565b600061045f8261088b565b506000828152600460205260409020546001600160a01b03166103bc565b6104888282336108c4565b5050565b6000600160085461049d9190611756565b905090565b6001600160a01b0382166104d157604051633250574960e11b8152600060048201526024015b60405180910390fd5b60006104de8383336108d1565b9050836001600160a01b0316816001600160a01b03161461052c576040516364283d7b60e01b81526001600160a01b03808616600483015260248201849052821660448201526064016104c8565b50505050565b600061053d816109ca565b610555600080516020611a01833981519152836109d7565b506040516001600160a01b038316907f93e15a6550ecfc8e6edd98132363907de724eed6c5d89ce96917f4d4ff4da1f390600090a25050565b6000828152600760205260409020600101546105a9816109ca565b61052c83836109d7565b6001600160a01b03811633146105dc5760405163334bd91960e11b815260040160405180910390fd5b6105e68282610a6b565b505050565b6105e683838360405180602001604052806000815250610794565b6000610611816109ca565b600961061e8385836117af565b507ff9c7803e94e0d3c02900d8a90893a6d5e90dd04d32a4cfe825520f82bf9f32f6838360405161065092919061186f565b60405180910390a1505050565b60006103bc8261088b565b60006001600160a01b038216610694576040516322718ad960e21b8152600060048201526024016104c8565b506001600160a01b031660009081526003602052604090205490565b6000600080516020611a018339815191526106ca816109ca565b6106e38360405180602001604052806000815250610ad8565b91505b50919050565b6000600080516020611a01833981519152610706816109ca565b6107468585858080601f016020809104026020016040519081016040528093929190818152602001838380828437600092019190915250610ad892505050565b95945050505050565b60009182526007602090815260408084206001600160a01b0393909316845291905290205460ff1690565b6060600180546103d19061170c565b610488338383610b46565b61079f8484846104a2565b61052c3385858585610be5565b60606103bc82610d10565b60006107c2816109ca565b6107da600080516020611a0183398151915283610a6b565b506040516001600160a01b038316907f44f4322f8daa225d5f4877ad0f7d3dfba248a774396f3ca99405ed40a044fe8190600090a25050565b60008281526007602052604090206001015461082e816109ca565b61052c8383610a6b565b6001600160a01b03918216600090815260056020908152604080832093909416825291909152205460ff1690565b60006001600160e01b03198216637965db0b60e01b14806103bc57506103bc82610e14565b6000818152600260205260408120546001600160a01b0316806103bc57604051637e27328960e01b8152600481018490526024016104c8565b6105e68383836001610e39565b6000828152600260205260408120546001600160a01b03908116908316156108fe576108fe818486610f3f565b6001600160a01b0381161561093c5761091b600085600080610e39565b6001600160a01b038116600090815260036020526040902080546000190190555b6001600160a01b0385161561096b576001600160a01b0385166000908152600360205260409020805460010190555b60008481526002602052604080822080546001600160a01b0319166001600160a01b0389811691821790925591518793918516917fddf252ad1be2c89b69c2b068fc378daa952ba7f163c4a11628f55a4df523b3ef91a4949350505050565b6109d48133610fa3565b50565b60006109e3838361074f565b610a635760008381526007602090815260408083206001600160a01b03861684529091529020805460ff19166001179055610a1b3390565b6001600160a01b0316826001600160a01b0316847f2f8788117e7eff1d82e926ec794901d17c78024a50270940304540a733656f0d60405160405180910390a45060016103bc565b5060006103bc565b6000610a77838361074f565b15610a635760008381526007602090815260408083206001600160a01b0386168085529252808320805460ff1916905551339286917ff6391f5c32d9c69d2a47ea670b442974b53935d1edc7fd64eb21e047a839171b9190a45060016103bc565b6008805460009182610ae98361189e565b919050559050610af98382610fdc565b815115610b0a57610b0a8183610ff6565b60405181906001600160a01b038516907f7426b47c070daa8b9ccf879cb8120114c763442de428045459543fcaeb45db6f90600090a392915050565b6001600160a01b038216610b7857604051630b61174360e31b81526001600160a01b03831660048201526024016104c8565b6001600160a01b03838116600081815260056020908152604080832094871680845294825291829020805460ff191686151590811790915591519182527f17307eab39ab6107e8899845ad3d59bd9653f200f220920489ca2b5937696c31910160405180910390a3505050565b6001600160a01b0383163b15610d0957604051630a85bd0160e11b81526001600160a01b0384169063150b7a0290610c279088908890879087906004016118b7565b6020604051808303816000875af1925050508015610c62575060408051601f3d908101601f19168201909252610c5f918101906118f4565b60015b610ccb573d808015610c90576040519150601f19603f3d011682016040523d82523d6000602084013e610c95565b606091505b508051600003610cc357604051633250574960e11b81526001600160a01b03851660048201526024016104c8565b805160208201fd5b6001600160e01b03198116630a85bd0160e11b14610d0757604051633250574960e11b81526001600160a01b03851660048201526024016104c8565b505b5050505050565b6060610d1b8261088b565b5060008281526006602052604081208054610d359061170c565b80601f0160208091040260200160405190810160405280929190818152602001828054610d619061170c565b8015610dae5780601f10610d8357610100808354040283529160200191610dae565b820191906000526020600020905b815481529060010190602001808311610d9157829003601f168201915b505050505090506000610dbf611046565b90508051600003610dd1575092915050565b815115610e03578082604051602001610deb929190611911565b60405160208183030381529060405292505050919050565b610e0c84611055565b949350505050565b60006001600160e01b03198216632483248360e11b14806103bc57506103bc826110bc565b8080610e4d57506001600160a01b03821615155b15610f0f576000610e5d8461088b565b90506001600160a01b03831615801590610e895750826001600160a01b0316816001600160a01b031614155b8015610e9c5750610e9a8184610838565b155b15610ec55760405163a9fbf51f60e01b81526001600160a01b03841660048201526024016104c8565b8115610f0d5783856001600160a01b0316826001600160a01b03167f8c5be1e5ebec7d5bd14f71427d1e84f3dd0314c0f7b2291e5b200ac8c7c3b92560405160405180910390a45b505b5050600090815260046020526040902080546001600160a01b0319166001600160a01b0392909216919091179055565b610f4a83838361110c565b6105e6576001600160a01b038316610f7857604051637e27328960e01b8152600481018290526024016104c8565b60405163177e802f60e01b81526001600160a01b0383166004820152602481018290526044016104c8565b610fad828261074f565b6104885760405163e2517d3f60e01b81526001600160a01b0382166004820152602481018390526044016104c8565b61048882826040518060200160405280600081525061116f565b600082815260066020526040902061100e8282611940565b506040518281527ff8e1a15aba9398e019f0b49df1a4fde98ee17ae345cb5f6b5e2c27f5033e8ce79060200160405180910390a15050565b6060600980546103d19061170c565b60606110608261088b565b50600061106b611046565b9050600081511161108b57604051806020016040528060008152506106e3565b8061109584611187565b6040516020016110a6929190611911565b6040516020818303038152906040529392505050565b60006001600160e01b031982166380ac58cd60e01b14806110ed57506001600160e01b03198216635b5e139f60e01b145b806103bc57506301ffc9a760e01b6001600160e01b03198316146103bc565b60006001600160a01b03831615801590610e0c5750826001600160a01b0316846001600160a01b0316148061114657506111468484610838565b80610e0c5750506000908152600460205260409020546001600160a01b03908116911614919050565b611179838361121a565b6105e6336000858585610be5565b606060006111948361127f565b600101905060008167ffffffffffffffff8111156111b4576111b46115f0565b6040519080825280601f01601f1916602001820160405280156111de576020820181803683370190505b5090508181016020015b600019016f181899199a1a9b1b9c1cb0b131b232b360811b600a86061a8153600a85049450846111e857509392505050565b6001600160a01b03821661124457604051633250574960e11b8152600060048201526024016104c8565b6000611252838360006108d1565b90506001600160a01b038116156105e6576040516339e3563760e11b8152600060048201526024016104c8565b60008072184f03e93ff9f4daa797ed6e38ed64bf6a1f0160401b83106112be5772184f03e93ff9f4daa797ed6e38ed64bf6a1f0160401b830492506040015b6d04ee2d6d415b85acef810000000083106112ea576d04ee2d6d415b85acef8100000000830492506020015b662386f26fc10000831061130857662386f26fc10000830492506010015b6305f5e1008310611320576305f5e100830492506008015b612710831061133457612710830492506004015b60648310611346576064830492506002015b600a83106103bc5760010192915050565b6001600160e01b0319811681146109d457600080fd5b60006020828403121561137f57600080fd5b813561138a81611357565b9392505050565b60005b838110156113ac578181015183820152602001611394565b50506000910152565b600081518084526113cd816020860160208601611391565b601f01601f19169290920160200192915050565b60208152600061138a60208301846113b5565b60006020828403121561140657600080fd5b5035919050565b80356001600160a01b038116811461142457600080fd5b919050565b6000806040838503121561143c57600080fd5b6114458361140d565b946020939093013593505050565b60008060006060848603121561146857600080fd5b6114718461140d565b925061147f6020850161140d565b9150604084013590509250925092565b6000602082840312156114a157600080fd5b61138a8261140d565b600080604083850312156114bd57600080fd5b823591506114cd6020840161140d565b90509250929050565b60008083601f8401126114e857600080fd5b50813567ffffffffffffffff81111561150057600080fd5b60208301915083602082850101111561151857600080fd5b9250929050565b6000806020838503121561153257600080fd5b823567ffffffffffffffff81111561154957600080fd5b611555858286016114d6565b90969095509350505050565b60008060006040848603121561157657600080fd5b61157f8461140d565b9250602084013567ffffffffffffffff81111561159b57600080fd5b6115a7868287016114d6565b9497909650939450505050565b600080604083850312156115c757600080fd5b6115d08361140d565b9150602083013580151581146115e557600080fd5b809150509250929050565b634e487b7160e01b600052604160045260246000fd5b6000806000806080858703121561161c57600080fd5b6116258561140d565b93506116336020860161140d565b925060408501359150606085013567ffffffffffffffff8082111561165757600080fd5b818701915087601f83011261166b57600080fd5b81358181111561167d5761167d6115f0565b604051601f8201601f19908116603f011681019083821181831017156116a5576116a56115f0565b816040528281528a60208487010111156116be57600080fd5b82602086016020830137600060208483010152809550505050505092959194509250565b600080604083850312156116f557600080fd5b6116fe8361140d565b91506114cd6020840161140d565b600181811c9082168061172057607f821691505b6020821081036106e657634e487b7160e01b600052602260045260246000fd5b634e487b7160e01b600052601160045260246000fd5b818103818111156103bc576103bc611740565b601f8211156105e657600081815260208120601f850160051c810160208610156117905750805b601f850160051c820191505b81811015610d075782815560010161179c565b67ffffffffffffffff8311156117c7576117c76115f0565b6117db836117d5835461170c565b83611769565b6000601f84116001811461180f57600085156117f75750838201355b600019600387901b1c1916600186901b178355610d09565b600083815260209020601f19861690835b828110156118405786850135825560209485019460019092019101611820565b508682101561185d5760001960f88860031b161c19848701351681555b505060018560011b0183555050505050565b60208152816020820152818360408301376000818301604090810191909152601f909201601f19160101919050565b6000600182016118b0576118b0611740565b5060010190565b6001600160a01b03858116825284166020820152604081018390526080606082018190526000906118ea908301846113b5565b9695505050505050565b60006020828403121561190657600080fd5b815161138a81611357565b60008351611923818460208801611391565b835190830190611937818360208801611391565b01949350505050565b815167ffffffffffffffff81111561195a5761195a6115f0565b61196e81611968845461170c565b84611769565b602080601f8311600181146119a3576000841561198b5750858301515b600019600386901b1c1916600185901b178555610d07565b600085815260208120601f198616915b828110156119d2578886015182559484019460019091019084016119b3565b50858210156119f05787850151600019600388901b60f8161c191681555b5050505050600190811b0190555056fe9f2df0fed2c77648de5860a4cc508cd0818c85b8b8a1ab4ceeef8d981c8956a6a2646970667358221220b268734d67bb43045029b43940ff0a1aaadbda087de51014b465f5245412ca1f64736f6c63430008140033",
  "linkReferences": {},
  "deployedLinkReferences": {}
}