{
  "_format": "hh-sol-artifact-1",
  "contractName": "Token",
  "sourceName": "contracts/Token.sol",
  "abi": [
    {
      "inputs": [
        {
          "internalType": "string",
          "name": "n",
          "type": "string"
        },
        {
          "internalType": "string",
          "name": "s",
          "type": "string"
        }
      ],
      "stateMutability": "nonpayable",
      "type": "constructor"
    },
    {
      "inputs": [
        {
          "internalType": "address",
          "name": "",
          "type": "address"
        }
      ],
      "name": "balanceOf",
      "outputs": [
        {
          "internalType": "uint256",
          "name": "",
          "type": "uint256"
        }
      ],
      "stateMutability": "view",
      "type": "function"
    },
    {
      "inputs": [
        {
          "internalType": "address",
          "name": "to",
          "type": "address"
        },
        {
          "internalType": "uint256",
          "name": "amount",
          "type": "uint256"
        }
      ],
      "name": "mint",
      "outputs": [],
      "stateMutability": "nonpayable",
      "type": "function"
    },
    {
      "inputs": [],
      "name": "minter",
      "outputs": [
        {
          "internalType": "address",
          "name": "",
          "type": "address"
        }
      ],
      "stateMutability": "view",
      "type": "function"
    },
    {
      "inputs": [],
      "name": "name",
      "outputs": [
        {
          "internalType": "string",
          "name": "",
          "type": "string"
        }
      ],
      "stateMutability": "view",
      "type": "function"
    },
    {
      "inputs": [
        {
          "internalType": "address",
          "name": "m",
          "type": "address"
        }
      ],
      "name": "setMinter",
      "outputs": [],
      "stateMutability": "nonpayable",
      "type": "function"
    },
    {
      "inputs": [],
      "name": "symbol",
      "outputs": [
        {
          "internalType": "string",
          "name": "",
          "type": "string"
        }
      ],
      "stateMutability": "view",
      "type": "function"
    }
  ],
  "bytecode": "0x608060405234801561001057600080fd5b5060405161065438038061065483398101604081905261002f9161010b565b600061003b83826101f7565b50600161004882826101f7565b5050506102b6565b634e487b7160e01b600052604160045260246000fd5b600082601f83011261007757600080fd5b81516001600160401b038082111561009157610091610050565b604051601f8301601f19908116603f011681019082821181831017156100b9576100b9610050565b816040528381526020925086838588010111156100d557600080fd5b600091505b838210156100f757858201830151818301840152908201906100da565b600093810190920192909252949350505050565b6000806040838503121561011e57600080fd5b82516001600160401b038082111561013557600080fd5b61014186838701610066565b9350602085015191508082111561015757600080fd5b5061016485828601610066565b9150509250929050565b600181811c9082168061018257607f821691505b6020821081036101a257634e487b7160e01b600052602260045260246000fd5b50919050565b601f8211156101f257600081815260208120601f850160051c810160208610156101cf5750805b601f850160051c820191505b818110156101ee578281556001016101db565b5050505b505050565b81516001600160401b0381111561021057610210610050565b6102248161021e845461016e565b846101a8565b602080601f83116001811461025957600084156102415750858301515b600019600386901b1c1916600185901b1785556101ee565b600085815260208120601f198616915b8281101561028857888601518255948401946001909101908401610269565b50858210156102a65787850151600019600388901b60f8161c191681555b5050505050600190811b01905550565b61038f806102c56000396000f3fe608060405234801561001057600080fd5b50600436106100625760003560e01c806306fdde0314610067578063075461721461008557806340c10f19146100b057806370a08231146100c557806395d89b41146100f3578063fca3b5aa146100fb575b600080fd5b61006f61012b565b60405161007c9190610242565b60405180910390f35b600254610098906001600160a01b031681565b6040516001600160a01b03909116815260200161007c565b6100c36100be3660046102ac565b6101b9565b005b6100e56100d33660046102d6565b60036020526000908152604090205481565b60405190815260200161007c565b61006f610235565b6100c36101093660046102d6565b600280546001600160a01b0319166001600160a01b0392909216919091179055565b60008054610138906102f8565b80601f0160208091040260200160405190810160405280929190818152602001828054610164906102f8565b80156101b15780601f10610186576101008083540402835291602001916101b1565b820191906000526020600020905b81548152906001019060200180831161019457829003601f168201915b505050505081565b6002546001600160a01b031633146102045760405162461bcd60e51b815260206004820152600a6024820152693737ba1036b4b73a32b960b11b604482015260640160405180910390fd5b6001600160a01b0382166000908152600360205260408120805483929061022c908490610332565b90915550505050565b60018054610138906102f8565b600060208083528351808285015260005b8181101561026f57858101830151858201604001528201610253565b506000604082860101526040601f19601f8301168501019250505092915050565b80356001600160a01b03811681146102a757600080fd5b919050565b600080604083850312156102bf57600080fd5b6102c883610290565b946020939093013593505050565b6000602082840312156102e857600080fd5b6102f182610290565b9392505050565b600181811c9082168061030c57607f821691505b60208210810361032c57634e487b7160e01b600052602260045260246000fd5b50919050565b8082018082111561035357634e487b7160e01b600052601160045260246000fd5b9291505056fea26469706673582212201a74fe7178b1f0223d9381be167d2f52831b11b484b97c2b8107eb8543a899f764736f6c63430008140033",
  "linkReferences": {},
  "deployedLinkReferences": {}
}